S01100006275696C642F4C6162342E73313961
S3152000000037C10120EF10007A97120000938202E197
S31520000010970000009380C00173901234374300008C
S31520000020130303887310033073002030EF10101C65
S315200000306F000000130101FF2326110023248100F5
S3152000004013040101B71701409387474083A6070091
S31520000050B7170140938747403717FFFF1307F7FF6E
S3152000006033F7E60023A0E700B71701409387474000
S3152000007083A60700B71701409387474037870000BC
S3152000008033E7E60023A0E700B71701409387C74070
S3152000009083A60700B71701409387C74037F7FFFFAE
S315200000A01307F77F33F7E60023A0E70013000000CD
S315200000B08320C10003248100130101016780000011
S315200000C0130101FD232611022324810213040103B7
S315200000D0232EA4FC232CB4FC0327C4FD9307700015
S315200000E063D0E7028327C4FD938787FF2326F4FE88
S315200000F0B7170140938747402324F4FE6F00800101
S315200001008327C4FD2326F4FEB717014093870740B3
S315200001102324F4FE832784FE83A707000327C4FE37
S31520000120131727009306F0003397E6001347F7FFCF
S3152000013033F7E700832784FE23A0E700032784FD07
S31520000140930720006316F702832784FE83A7070000
S315200001500327C4FE13172700930640003397E600B3
S3152000016033E7E700832784FE23A0E7006F0000091A
S31520000170832784FE83A707000327C4FE13172700BF
S31520000180930680003397E60033E7E700832784FE53
S3152000019023A0E700832784FD639C0702B71701404D
S315200001A09387C74003A707008327C4FD9306100043
S315200001B0B397F60093C7F7FF93860700B71701405A
S315200001C09387C7403377D70023A0E7006F0000034B
S315200001D0B71701409387C74003A707008327C4FDAD
S315200001E093061000B397F60093860700B7170140D1
S315200001F09387C7403367D70023A0E700130000008A
S315200002008320C102032481021301010367800000B9
S31520000210130101FD23261102232481021304010365
S31520000220232EA4FC232CB4FC0327C4FD93077000C3
S3152000023063D0E7028327C4FD938787FF2326F4FE36
S31520000240B7170140938747402324F4FE6F008001AF
S315200002508327C4FD2326F4FEB71701409387074062
S315200002602324F4FE832784FE83A707000327C4FEE6
S31520000270131727009306F0003397E6001347F7FF7E
S3152000028033F7E700832784FE23A0E700832784FD36
S3152000029063960702832784FE83A707000327C4FEED
S315200002A013172700930620003397E60033E7E7006D
S315200002B0832784FE23A0E7006F008002832784FE25
S315200002C083A707000327C4FE1317270093066000A1
S315200002D03397E60033E7E700832784FE23A0E70071
S315200002E0130000008320C1020324810213010103AD
S315200002F067800000130101FE232E1100232C8100AC
S31520000300130401022326A4FEB71701409387C74092
S3152000031003A707008327C4FE93061000B397F600B1
S3152000032093860700B71701409387C7403367D700E6
S3152000033023A0E700130000008320C10103248101CC
S315200003401301010267800000130101FE232E110014
S31520000350232C8100130401022326A4FEB717014093
S315200003609387C74003A707008327C4FE9306100080
S31520000370B397F60093C7F7FF93860700B717014098
S315200003809387C7403377D70023A0E70013000000E8
S315200003908320C1010324810113010102678000002B
S315200003A0130101FE232E1100232C810013040102C8
S315200003B09305100013054000EFF09FE5930510000C
S315200003C013055000EFF0DFE49305100013056000DD
S315200003D0EFF01FE49305100013057000EFF05FE3C4
S315200003E09305100013050000EFF09FCD9305100034
S315200003F013051000EFF0DFCC930510001305200045
S31520000400EFF01FCC9305100013053000EFF05FCB03
S3152000041013054000EFF01FEE13055000EFF09FED9F
S3152000042013056000EFF01FED13057000EFF09FEC51
S31520000430232604FE6F00400E8327C4FE93874700C1
S3152000044013850700EFF05FF0B717014093878740C9
S3152000045083A7070013F7F7009307F0006300F70A56
S31520000460B71701409387874083A7070013F7F70044
S315200004709307E0006318F7008327C4FE93972700AD
S315200004806F00800AB71701409387874083A707002C
S3152000049013F7F7009307D000631AF7008327C4FEEB
S315200004A093972700938717006F000008B71701401E
S315200004B09387874083A7070013F7F7009307B000B9
S315200004C0631AF7008327C4FE939727009387270094
S315200004D06F008005B71701409387874083A70700E1
S315200004E013F7F70093077000631AF7008327C4FEFB
S315200004F093972700938737006F0000038327C4FE56
S315200005009387470013850700EFF0DFDE8327C4FEBD
S31520000510938717002326F4FE0327C4FE9307300093
S31520000520E3DCE7F09307F0FF138507008320C10182
S31520000530032481011301010267800000130101FFDA
S31520000540232611002324810013040101B7E700E0CC
S315200005509387071083A60700B7E700E09387071065
S315200005603717000033E7E60023A0E700B7E700E0EF
S315200005709387071083A60700B7E700E09387071045
S315200005803707400033E7E60023A0E700B7E700E09F
S315200005909387071083A60700B7E700E09387071025
S315200005A03707800033E7E60023A0E700B7E700E03F
S315200005B09387071083A60700B7E700E09387071005
S315200005C03707000133E7E60023A0E700B7E700E09E
S315200005D09387071083A60700B7E700E093870710E5
S315200005E03707000233E7E60023A0E700B7070140FC
S315200005F037370000130737332394E700B707014046
S315200006009387074003A7C700B70701409387074092
S315200006101367F70023A6E700B70701409387074033
S3152000062003A70700B7070140938707401367F70022
S3152000063023A0E700130000008320C10003248100CB
S315200006401301010167800000130101FF2326110019
S315200006502324810013040101B757002083A7C7076D
S315200006601307100023A2E700B757002083A7C70768
S315200006701307E00223A0E700B757002083A6C70789
S3152000068037A74A04130707209307000023A8E6008C
S3152000069023AAF600130000008320C1000324810052
S315200006A01301010167800000130101F4232E110AB2
S315200006B0232C510AF3223000232A510A2328610AC7
S315200006C02326710A2324810A2322A10A2320B10A80
S315200006D0232EC108232CD108232AE1082328F10838
S315200006E023260109232411092322C1092320D10904
S315200006F0232EE107232CF107272E0104272C110492
S31520000700272A210427283104272641042724510497
S315200007102722610427207104272EA102272CB1024B
S31520000720272AC1022728D1022726E1022724F102FF
S315200007302722010327201103272EC101272CD101AF
S31520000740272AE1012728F1011304010C232604F4AA
S315200007506F00C03B232404F46F00C013B75700205A
S31520000760938607D80327C4F49307070093971700A7
S31520000770B387E70093972700B387F60083D6470011
S31520000780B757002013868709032784F493070700A9
S3152000079093971700B387E70093972700B307F600D0
S315200007A083D707006392F60EB7570020938607D8A3
S315200007B00327C4F49307070093971700B387E7002E
S315200007C093972700B387F60083D66700B757002094
S315200007D013868709032784F4930707009397170046
S315200007E0B387E70093972700B307F60083D7270040
S315200007F0639CF608B7570020938607D80327C4F4CE
S315200008009307070093971700B387E700939727006E
S31520000810B386F600B757002013868709032784F48A
S315200008209307070093971700B387E700939727004E
S31520000830B307F60083A7470023A4F600B757002086
S3152000084093868709032784F4930707009397170055
S31520000850B387E70093972700B387F60083A787001F
S3152000086093861700B757002013868709032784F439
S315200008709307070093971700B387E70093972700FE
S31520000880B307F60023A4D700832784F493871700A1
S315200008902324F4F4B757002083A7C768032784F4DA
S315200008A0E34EF7EAB757002003A847FFB7570020C3
S315200008B0938607D80327C4F4930707009397170056
S315200008C0B387E70093972700B387F60083D74700BF
S315200008D013850700B7570020938607D80327C4F44B
S315200008E09307070093971700B387E700939727008E
S315200008F0B387F60083D7670093850700B757002094
S31520000900938607D80327C4F4930707009397170005
S31520000910B387E70093972700B387F60083A70700DE
S3152000092013860700B7570020938607D80327C4F4F9
S315200009309307070093971700B387E700939727003D
S31520000940B387F60083A70700938607009307100056
S3152000095013070000E7000800B7570020938607D842
S315200009600327C4F49307070093971700B387E7007C
S3152000097093972700B387F60083D64700B757002002
S31520000980138607D80327C4F4930707009397170005
S31520000990B387E70093972700B307F60083D787002E
S315200009A0B387F6009396070193D60601B757002022
S315200009B0138607D80327C4F49307070093971700D5
S315200009C0B387E70093972700B307F6002392D70053
S315200009D0B7570020938607D80327C4F49307070048
S315200009E093971700B387E70093972700B387F600FE
S315200009F083D66700B7570020138607D80327C4F489
S31520000A009307070093971700B387E700939727006C
S31520000A10B307F60083D7A700B387F600939607019E
S31520000A2093D60601B7570020138607D80327C4F4A8
S31520000A309307070093971700B387E700939727003C
S31520000A40B307F6002393D700B757002003A847FF24
S31520000A50B7570020938607D80327C4F493070700C7
S31520000A6093971700B387E70093972700B387F6007D
S31520000A7083D7470013850700B7570020938607D8EA
S31520000A800327C4F49307070093971700B387E7005B
S31520000A9093972700B387F60083D7670093850700CF
S31520000AA0B7570020938607D80327C4F49307070077
S31520000AB093971700B387E70093972700B387F6002D
S31520000AC083A7070013860700B7570020938607D809
S31520000AD00327C4F49307070093971700B387E7000B
S31520000AE093972700B387F60083A70700938607000E
S31520000AF093071000370701001307F7FFE7000800E8
S31520000B008327C4F4938717002326F4F4B7570020CD
S31520000B1083A707080327C4F4E34EF7C2B75700207C
S31520000B2083A7C7071307100023A2E70013000000BE
S31520000B308320C10B8322410B739032008322810BC9
S31520000B400323010B8323C10A0324810A0325410AB7
S31520000B508325010A0326C109832681090327410922
S31520000B60832701090328C10883288108032E410809
S31520000B70832E0108032FC107832F81070720C10574
S31520000B808720810507214105872101050722C10408
S31520000B908722810407234104872301040725C103F3
S31520000BA08725810307264103872601030727C102DC
S31520000BB0872781020728410287280102072EC101C3
S31520000BC0872E8101072F4101872F01011301010C77
S31520000BD073002030130101F4232E110A232C510A0D
S31520000BE0F3223000232A510A2328610A2326710A78
S31520000BF02324810A2322A10A2320B10A232EC108F5
S31520000C00232CD108232AE1082328F10823260109C9
S31520000C10232411092322C1092320D109232EE107E8
S31520000C20232CF107272E0104272C1104272A21041F
S31520000C30272831042726410427245104272261042A
S31520000C4027207104272EA102272CB102272AC102B0
S31520000C502728D1022726E1022724F1022722010391
S31520000C6027201103272EC101272CD101272AE10194
S31520000C702728F1011304010CEFF08FF22326A4F4A8
S31520000C80B7570020938707D883D747002310F4F45B
S31520000C90B7570020938707D883D767002311F4F42A
S31520000CA0232404F40327C4F493071000631AF700DF
S31520000CB0930740012313F4F4231204F46F00400534
S31520000CC00327C4F493074000631AF70093074001F3
S31520000CD02312F4F4231304F46F0080030327C4F4CF
S31520000CE093075000631AF7009307C0FE2313F4F40A
S31520000CF0231204F46F00C0010327C4F49307600095
S31520000D006318F7009307C0FE2312F4F4231304F4A8
S31520000D10B757002003A7C768B757002093868709CF
S31520000D209307070093971700B387E7009397270049
S31520000D30B387F600032704F423A0E700032744F42F
S31520000D4023A2E700032784F423A4E700B757002053
S31520000D5083A7C76813871700B757002023A6E7681D
S31520000D60B7070140938747411307F0FF23A0E70009
S31520000D70130000008320C10B8322410B73903200A5
S31520000D808322810B0323010B8323C10A0324810AB7
S31520000D900325410A8325010A0326C10983268109E1
S31520000DA003274109832701090328C10883288108CD
S31520000DB0032E4108832E0108032FC107832F8107A5
S31520000DC00720C105872081050721410587210105C7
S31520000DD00722C104872281040723410487230104B3
S31520000DE00725C1038725810307264103872601039B
S31520000DF00727C10287278102072841028728010287
S31520000E00072EC101872E8101072F4101872F01015E
S31520000E101301010C73002030130101FE232E110053
S31520000E20232C810013040102EFF04FF1EFF0DF8154
S31520000E30EF008015B757002003A847FF930710003F
S31520000E40130700009306F0131306F01D9305000008
S31520000E5013050000E7000800B757002083A7C768DE
S31520000E602322F4FE832744FE93850700B7570020EC
S31520000E701385C798EF100076B757002083A7C707BA
S31520000E8003A70700B757002083A7C70713671700D4
S31520000E9023A0E700232604FE6F00C00DB7570020CD
S31520000EA0938687090327C4FE9307070093971700A5
S31520000EB0B387E70093972700B387F60003A7870039
S31520000EC0B757002083A707086310F70A8327C4FEB5
S31520000ED0938717002324F4FE6F00C006832784FE21
S31520000EE01387F7FFB75700209386870993070700D4
S31520000EF093971700B387E700939727003387F60069
S31520000F00B757002013868709832684FE9387060019
S31520000F1093971700B387D70093972700B307F60058
S31520000F2083A607002320D70083A647002322D700C5
S31520000F3083A787002324F700832784FE938717003F
S31520000F402324F4FEB757002083A7C768032784FE0F
S31520000F50E346F7F8B757002083A7C7681387F7FF3C
S31520000F60B757002023A6E7688327C4FE9387170078
S31520000F702326F4FEB757002083A7C7680327C4FE9D
S31520000F80E34EF7F06FF01FF197420000938282063E
S31520000F90170300001303431223A0620097420000A8
S31520000FA093828205170300001303030E23A0620019
S31520000FB09742000093828204170300001303030A5A
S31520000FC023A0620097420000938282031703000049
S31520000FD01303C30523A06200974200009382820276
S31520000FE0170300001303431023A06200130510000B
S31520000FF06F0040001743000013030301B7C301200D
S315200010009383430123A06300974800009388C8FF79
S3152000101097420000938282FC23A0A2007300000066
S3152000102003A502006780000097480000938848FEC9
S3152000103097420000938282FA23A0A20023A2B20044
S3152000104023A4A2009385150023A6B20023A8C200DC
S31520001050730000006780000097480000938848FBD3
S3152000106097420000938282F723A0A20023A2B20017
S3152000107023A4C20023A6D20023A8E2007300000006
S315200010806780000097480000938808F9974200007F
S315200010909382C2F423A0A20023A2B20023A4C200FA
S315200010A023A6D20023A8E20023AAF20073000000A0
S315200010B06780000097480000938888F697420000D2
S315200010C09382C2F123A0A20023A2B20023A4C200CD
S315200010D023A6D20023A8E20023AAF2007300000070
S315200010E06780000097480000938888F2174E00001A
S315200010F0130ECEEE9302000063D4E2041303000025
S31520001100635CD302B30E6500338F5500835F060000
S315200011102320DE012322EE012324DE0193031F0078
S3152000112023267E002328FE017300000013062600D6
S31520001130130313006FF0DFFC938212006FF0DFFBC6
S3152000114067800000130101FE232E1100232C81004D
S3152000115013040102232604FE232404FEB7170240AB
S3152000116003A70700B71702401367170023A0E7005D
S31520001170B71702409387470083A60700B717024098
S31520001180938747003707FFF833F7E60023A0E700E9
S31520001190B717024083A60700B71702403707F7FEA6
S315200011A01307F7FF33F7E60023A0E700B71702403F
S315200011B083A60700B71702403707FCFF1307F7FF80
S315200011C033F7E60023A0E700B717024093874700CE
S315200011D083A60700B717024093874700370781FF8A
S315200011E01307F7FF33F7E60023A0E700B7170240FF
S315200011F083A60700B7170240370700EC1307F7FF4F
S3152000120033F7E60023A0E700B7170240938787004D
S315200012103707FF0023A0E700B71702409387C702CE
S3152000122023A00700B717024083A60700B71702407E
S315200012303707010033E7E60023A0E700B71702408F
S3152000124003A70700B7070200B377F7002324F4FEAD
S315200012508327C4FE938717002326F4FE832784FE64
S31520001260639807000327C4FE9307401FE318F7FC83
S31520001270B717024003A70700B7070200B377F700A6
S3152000128063960700930710006F00C011B71702403E
S3152000129013874700B71702409387470003270700A5
S315200012A023A0E700B717024013874700B71702406D
S315200012B0938747000327070023A0E700B7170240BC
S315200012C09387C70203A70700B71702409387C70271
S315200012D01367074023A0E700B7170240938747000C
S315200012E083A60700B7170240938747003707C1FF39
S315200012F01307F7FF33F7E60023A0E700B7170240EE
S315200013009387470083A60700B717024093874700B5
S315200013103707010033E7E60023A0E700B7170240AE
S3152000132083A60700B71702403707000133E7E60018
S3152000133023A0E70013000000B717024003A7070009
S31520001340B7070002B377F700E38807FEB717024016
S315200013509387470003A70700B717024093874700E4
S315200013601377C7FF23A0E700B717024093874700EC
S3152000137003A70700B7170240938747001367270084
S3152000138023A0E70013000000B71702409387470009
S3152000139083A7070013F7C70093078000E316F7FE1D
S315200013A093070000138507008320C10103248101D0
S315200013B01301010267800000130101FD232611029B
S315200013C023245102232281022320A102232EB100AD
S315200013D0232CC100232AD1002328E1002326F10053
S315200013E02324010113040103B717004083D7070103
S315200013F01397070113570701B71700401377E7FF25
S3152000140013170701135707012398E700B757002042
S3152000141003A7875483A7C75413051000930500001C
S315200014203306A700130806003338E800B386B70052
S31520001430B307D80093860700130706009387060094
S31520001440B756002023A4E65423A6F6541300000022
S315200014508320C10283228102032441020325010243
S315200014608325C1010326810183264101032701012A
S315200014708327C10003288100130101037300203054
S31520001480130101FE232E1100232C810013040102D7
S315200014902326A4FEB757002003A7875483A7C75443
S315200014A08327C4FE23A2E7008327C4FE03A74700A1
S315200014B08327C4FE23A0E700B757002003A787543D
S315200014C083A7C75493070700138507008320C1010C
S315200014D0032481011301010267800000130101FD2D
S315200014E0232611022324810213040103232EA4FCA4
S315200014F0232CB4FCB757002003A7875483A7C754CF
S315200015002324E4FE2326F4FE032784FE8327C4FE39
S31520001510130640069306000013050700938507006F
S31520001520EF00807613070500938705008326C4FD08
S3152000153023A0E60023A2F600032784FE8327C4FE09
S31520001540130640069306000013050700938507003F
S31520001550EF00103A13070500938705008327C4FD83
S3152000156023A4E70093070000138507008320C10208
S31520001570032481021301010367800000130101FE89
S31520001580232E1100232C8100130401022326A4FEFE
S315200015902324B4FE8327C4FE03A7070083A747009E
S315200015A0930540063385B70293050000B305B702BD
S315200015B03305B500930540063303B702B338B702A7
S315200015C013080300B30715019388070013070800C3
S315200015D093870800B755002023A4E55423A6F55485
S315200015E08327C4FE83A787001386070093D7F74176
S315200015F093860700B757002003A5875483A5C754B1
S315200016003307A600130807003338C800B387B6008F
S31520001610B306F80093870600B756002023A4E654A5
S3152000162023A6F65493070000138507008320C101E3
S31520001630032481011301010267800000130101FFC9
S31520001640232611002324810013040101B7470140FA
S315200016509387078083D707009397070193D70701BE
S3152000166093F7070263800702B747014093870780F5
S3152000167083D747009397070193D7070193F7F70F6F
S315200016806F00800093070000138507008320C100A8
S31520001690032481001301010167800000130101FE6C
S315200016A0232E1100232C8100130401029307050029
S315200016B0A307F4FEB7470140938707800347F4FE4C
S315200016C013170701135707012392E70013000000A1
S315200016D0B74701409387078083D707009397070171
S315200016E093D7070193F70708E38407FE130000004A
S315200016F0130000008320C10103248101130101028C
S3152000170067800000130101FD232611022324810294
S3152000171013040103232EA4FCB757002083A70755E3
S31520001720639A0700B7570020375700201307076A28
S3152000173023A8E754B757002083A707552326F4FE8E
S31520001740B757002003A707558327C4FD3307F700A3
S31520001750B7670020938707EA63FEE700EF10C00B08
S31520001760130705009307C0002320F7009307F0FF17
S315200017706F000002B757002003A707558327C4FD33
S315200017803307F700B757002023A8E7548327C4FE62
S31520001790138507008320C10203248102130101035C
S315200017A067800000130101FE232E1100232C8100E7
S315200017B01304010213000000EFF0DF9893070500E1
S315200017C0E39C07FEB717024083A68701B71702409E
S315200017D03747000033E7E60023ACE700B71702409F
S315200017E003A78701B71702401367470023ACE7001A
S315200017F0B717024003A78701B717024013671700E0
S3152000180023ACE700B717024003A78701B7170240AA
S315200018101367070223ACE700B717024003A7870127
S31520001820B71702401367070423ACE700B717024037
S3152000183083A6C700B71702403747000013070706DD
S3152000184033E7E60023A6E700B717024083A6C700C2
S31520001850B717024037C7FFFF1307F7F933F7E6003C
S3152000186023A6E700B71701409387478003A7070001
S31520001870B7170140938747801367070B23A0E7001C
S31520001880B71701409387478003A70700B717014082
S31520001890938747801367074023A0E700B747014097
S315200018A0938707801307204E2394E700B74701400C
S315200018B093870780372700001307C7002396E70082
S315200018C0B717024003A7C701B717024013670701DE
S315200018D023AEE700B717024003A70701B717024058
S315200018E01367070123A8E700B717024003A70701DC
S315200018F0B71702401377F7FE23A8E700B717024071
S3152000190003A7C701B71702401367070223AEE700F4
S31520001910B717024003A70701B7170240136707024C
S3152000192023A8E700B717024003A70701B71702400D
S315200019301377F7FD23A8E700B757002023A80754FD
S31520001940B7570020938787092326F4FEB757002030
S315200019509387076A2324F4FE6F0040018327C4FE81
S31520001960138717002326E4FE238007000327C4FEDF
S31520001970832784FEE364F7FEB757002083A7070971
S3152000198083A7470093060000130620009305000056
S3152000199013850700EF001049B757002083A70709D2
S315200019A083A78700930600001306200093050000F6
S315200019B013850700EF001047B757002083A70709B4
S315200019C083A7C70093060000130620009305000096
S315200019D013850700EF001045130000008320C10186
S315200019E0032481011301010267800000130101FF16
S315200019F02326110023248100130401011300000073
S31520001A008320C100032481001301010167800000A7
S31520001A10130101FE232E1100232C81001304010241
S31520001A202326A4FE8327C4FE638A07008325C4FEDB
S31520001A30B757002013850799EF00D039EFF01FFB29
S31520001A40130000008320C101032481011301010238
S31520001A5067800000130101FE232E1100232C810034
S31520001A60130401022326A4FE9307F0FF1385070023
S31520001A708320C10103248101130101026780000034
S31520001A80130101FE232E1100232C810013040102D1
S31520001A902326A4FE2324B4FE2322C4FE9307F0FFAC
S31520001AA0138507008320C10103248101130101024C
S31520001AB067800000130101FE232E1100232C8100D4
S31520001AC0130401022326A4FE2324B4FE832784FEC6
S31520001AD03727000023A2E70093070000138507009D
S31520001AE08320C101032481011301010267800000C4
S31520001AF0130101FE232E1100232C81001304010261
S31520001B002326A4FE2324B4FE2322C4FE930700002A
S31520001B10138507008320C1010324810113010102DB
S31520001B2067800000130101FE232E1100232C810063
S31520001B30130401022326A4FE930700001385070041
S31520001B408320C10103248101130101026780000063
S31520001B50130101FD2326110223248102130401030C
S31520001B60232EA4FC232CB4FC232AC4FC832744FD67
S31520001B702326F4FE6F00C001832784FD13871700F8
S31520001B80232CE4FC83C7070013850700EFF01FB161
S31520001B90832744FD1387F7FF232AE4FCE39E07FCF3
S31520001BA08327C4FE138507008320C10203248102F4
S31520001BB01301010367800000130101FD2326110292
S31520001BC02324810213040103232EA4FC232CB4FC1A
S31520001BD0232AC4FC232604FEEFF05FA69307050004
S31520001BE0A305F4FE8347B4FE63820702832784FDA0
S31520001BF013871700232CE4FC0347B4FE2380E70059
S31520001C008327C4FE938717002326F4FE032744FD6B
S31520001C108327C4FEE312F7FC8327C4FE138507003F
S31520001C208320C1020324810213010103678000007F
S31520001C30130101FF2326110023248100130401012F
S31520001C4093070000138507008320C1000324810029
S31520001C501301010167800000130101FE232E1100EC
S31520001C60232C8100130401022326A4FE2324B4FE80
S31520001C7093070000138507008320C10103248101F7
S31520001C801301010267800000130806009307050070
S31520001C9093880500639C060C63FAC522370701006A
S31520001CA06368E63637070001130380016374E60094
S31520001CB01303000137570020B35666001307079B0E
S31520001CC03307D70003470700930600023307670050
S31520001CD0630ED700B386E640B398D5003357E500A8
S31520001CE03318D600B317D500B36817011356080169
S31520001CF033D5C8029316080193D6060113D70701D8
S31520001D00B3F8C802B385A602939808013367170172
S31520001D10637CB700B308E8001387080063F4B800B3
S31520001D2063F408391305F5FF3307B740B355C702E7
S31520001D309397070193D707013377C702B386B60275
S31520001D4013170701B3E7E70063FAD700B307F800D4
S31520001D5063F4D70063F607359385F5FF1315050160
S31520001D603365B500930500006780000063F8D50051
S31520001D70930500001305000067800000B7070100E7
S31520001D8063E6F62AB70700011307800163F4F6001D
S31520001D9013070001B757002033D8E6009387079B27
S31520001DA0B387070183C7070013080002B387E7003C
S31520001DB0638607293308F840B358F600B396060120
S31520001DC0B3E8D80033D3F50093DE0801B356D30326
S31520001DD0139E0801B3950501135E0E01B357F50056
S31520001DE0B3E7B70013D70701331606013373D303BE
S31520001DF0B305DE021313030133676700637CB70064
S31520001E003383E800130703006374B300637C132D48
S31520001E109386F6FF3307B7403353D70393970701CB
S31520001E2093D707013377D703B3056E02131707013C
S31520001E30B3E7E70063FCB7003387F8009307070092
S31520001E406374B700637417291303F3FF939606018F
S31520001E50B3E6660093180601139706011357070188
S31520001E6093D808011356060113D30601330E170320
S31520001E70B387B740B3081303B305C70213570E0140
S31520001E80B38515013307B7003303C3026376170101
S31520001E90370601003303C3001356070133066600D5
S31520001EA063E0C702131E0E01135E0E01131707010E
S31520001EB0331505013307C701637EE51E639CC71EE4
S31520001EC01385F6FF9305000067800000630A061459
S31520001ED037070100637CE6189338061093B818007C
S31520001EE093983800B3561601375700201307079BDF
S31520001EF03307D7000347070093060002330717016D
S31520001F00630AD714B387E6403318F60033D3E500C7
S31520001F1093580801335E130313160801B395F50091
S31520001F20135606013357E5003367B700935607016A
S31520001F30B317F50033731303B305C6031313030155
S31520001F40B3E6660063FCB6003305D80093060500A9
S31520001F506374B50063760517130EFEFFB386B6408D
S31520001F6033D516031317070113570701B3F61603C4
S31520001F703303A602939606013367D700637C670076
S31520001F80B306E8001387060063F4660063F60615B9
S31520001F901305F5FF93150E01B3E5A500330767403A
S31520001FA03355170393D60701337717033303C50237
S31520001FB01317070133E7E600637C6700B306E800E2
S31520001FC01387060063F4660063F6060D1305F5FF16
S31520001FD033076740B35617039397070193D7070133
S31520001FE0337717033386C60213170701B3E7E700D3
S31520001FF063FAC700B307F80063F4C70063F807095C
S315200020009386F6FF131505013365D500678000001A
S315200020101333061013331300131333006FF09FC9C5
S3152000202093060000930800006FF01FEC13B706100C
S3152000203013371700131737006FF0DFD53336C50077
S31520002040B3B6B6001336160033E5C6009305000076
S31520002050678000003387C540935806011316060192
S3152000206013560601930510006FF09FF33707000102
S315200020706378E60093560601930800016FF0DFE6C9
S3152000208093568601930880016FF01FE69386E6FF3C
S315200020906FF05FF71305E5FF338706016FF05FF3F7
S315200020A09385E5FF6FF09FCB1305E5FF3387080186
S315200020B06FF09FC713850600930500006780000018
S315200020C0130EEEFFB30605016FF05FE91303E3FF7E
S315200020D0B30717016FF09FD71305E5FF3387060176
S315200020E06FF05FEB9386E6FF330713016FF09FD205
S315200020F013080600930805001383050013870500BF
S31520002100639A060E63FEC526B70701006364F63E92
S31520002110B7070001930680016374F6009306000159
S31520002120B75700203353D6009387079BB3876700A2
S3152000213083C7070013030002B387D700B306F34013
S31520002140638C67003397D500B357F50033E7E70074
S315200021503318D600B318D500935508013356B70265
S31520002160131308011353030193D708013377B702DA
S315200021703306660213170701B3E7E70063F2C702C7
S31520002180B307F80033B5070133B7C7001335150079
S315200021903377A7003307E04033770701B307F7000B
S315200021A0B387C74033D7B7021395080113550501E6
S315200021B0B3F7B70233076702939707013365F50034
S315200021C06372E5023305A80033360501B337E5000F
S315200021D013361600B3F7C700B307F040B3F707016D
S315200021E03385A7003305E5403355D5009305000018
S315200021F067800000130E050063F4D5006780000099
S31520002200B707010063E6F630B70700011307800120
S3152000221063F4F60013070001B757002033D8E60011
S315200022209387079BB387070183C80700130800021B
S31520002230B388E8006386082F33081841B396060151
S31520002240335316013363D300B3DE1501935F0301C5
S31520002250B3D7FE03131F0301B3950501135F0F01C7
S31520002260B3561501B3E6B60013D706013316060199
S31520002270331E0501B3FEFE03B305FF02939E0E0136
S315200022803367D701637CB7003305E30013070500E6
S315200022906374B500637A652E9387F7FF3307B740DB
S315200022A03355F7039396060193D606013377F70342
S315200022B0B305AF021317070133E7E600637CB700C7
S315200022C0B306E3001387060063F4B60063F8662AB4
S315200022D01305F5FF93970701B3E7A7003307B74028
S315200022E0931606019395070193D5050193D606010A
S315200022F093D70701135F0601B38ED502B386D702A3
S3152000230013D50E01B385E503B385D5003305B50096
S31520002310B387E7036376D500B7060100B387D700F6
S3152000232093560501939E0E0193DE0E0113150501AA
S31520002330B387F6003305D5016368F700B305F74088
S3152000234063900502637EAE003306C5403335C50073
S3152000235033056500B387A740B305F740130506008C
S315200023603305AE40333EAE00B385C541B398150163
S3152000237033550501B3D5050133E5A8006780000074
S3152000238063020618B70701006370F61C13370610A0
S315200023901337170013173700B356E600B757002038
S315200023A09387079BB387D70083C7070013030002D1
S315200023B0B387E700B306F340638E67163318D6005B
S315200023C033DEF50013530801B35E6E0213160801BF
S315200023D0B395D5003357F500135606013367B7007A
S315200023E093570701B318D500337E6E02B385CE020C
S315200023F0131E0E01B3E7C70163F2B702B307F80055
S3152000240033BE070133B5B700133E1E003375C50131
S315200024103305A04033750501B307F500B387B740F0
S31520002420B3D567021317070113570701B3F76702DE
S31520002430B385C502939707013367F7006372B70226
S315200024403307E80033350701B337B70013351500D6
S31520002450B3F7A700B307F040B3F707013387E700C8
S315200024603307B740B355670293D70801337767021E
S31520002470B385C50213170701B3E7E70063F2B70276
S31520002480B307F80033B5070133B7B7001335150086
S315200024903377A7003307E04033770701B307F70008
S315200024A0B387B74033D767029398080193D80801BA
S315200024B033F56702B307C7021315050133E5A800F4
S315200024C06372F5023305A800333605013337F5006C
S315200024D0133616003377C7003307E04033770701FA
S315200024E03305A7003305F5403355D5009305000085
S315200024F0678000009336061093B616009396360032
S315200025006FF01FC293060000130700006FF01FE94B
S3152000251013B7061013371700131737006FF0DFCFE6
S3152000252063E4B6046372C50413050E009305030025
S31520002530678000003387C540135306011316060132
S31520002540135606016FF01FF2B70700016378F600F5
S3152000255093560601130700016FF05FE49356860138
S31520002560130780016FF09FE3330EC5403333C50157
S31520002570B386D540338366406FF01FFB1305E5FF16
S31520002580338766006FF01FD59387E7FF3307650013
S315200025906FF0DFD0130101FC2324C1022326D102D0
S315200025A02328E102232AF102232C0103232E1103DF
S315200025B0138605008325850093068102232E1100AC
S315200025C02326D100EF00806C8320C1011301010472
S315200025D067800000130101FC232AF10297370000CF
S315200025E083A747AB2324C1022326D1022322B1028B
S315200025F02328E102232C0103232E110383A5870020
S31520002600930641021306050013850700232E1100A9
S315200026102326D100EF0080678320C1011301010426
S3152000262067800000130101FD232E31019739000038
S3152000263083A949A623248102232291022320210350
S31520002640232C410123261102232A510113040500BC
S3152000265013890500130A060093840600638A09007D
S3152000266083A709026396070013850900EF10003F30
S31520002670930720006308FA0093372A00638A071815
S3152000268063C804189305040013850900EF10C00AD7
S3152000269083254403638C0500930744046386F50071
S315200026A013850900EF000018232A04028357C4006B
S315200026B0232C04002322040093F7070863880700CD
S315200026C08325040113850900EF00C0158357C40034
S315200026D037F7FFFF1307C735B3F7E7002316F400D4
S315200026E093072000630AFA109306C100130681009F
S315200026F09305040013850900EF10D00C8357C400FE
S31520002700B3E7A7002316F400639804068324810008
S3152000271013850400EF00002113090500938A0400A5
S315200027206312050C832A810063969A0A1305F0FF2B
S315200027308357C4002324040093E727002316F400BC
S31520002740930774042320F4002328F4009307100031
S31520002750232AF4008320C102032481028324410218
S31520002760032901028329C101032A8101832A410108
S315200027701301010367800000E30C09F883A709020F
S315200027806396070013850900EF10402D930710006C
S315200027906318FA008357C400B3E747012316F400F1
S315200027A08317C4002320240123282401232A9400EC
S315200027B013F78700630A070493F717006382070459
S315200027C0B304904023240400232C94001305000016
S315200027D06FF05FF813850A00EF00C0141309050097
S315200027E0E30605F48357C40093840A0093E7070899
S315200027F02316F4006FF09FF8130500006FF05FF3C7
S31520002800232494006FF09FFC232404006FF01FFC08
S315200028101305F0FF6FF01FF4173500000325858799
S3152000282067800000638E050E83A7C5FF130101FE96
S31520002830232C8100232E11001384C5FF63D40700A7
S315200028403304F4002326A100EF000035973700005B
S3152000285083A787E40325C10063900702232204008F
S315200028609737000023AA87E2032481018320C10130
S31520002870130101026F0080326374F4028326040080
S315200028803307D400639AE70003A7070083A747000E
S315200028903307D7002320E4002322F4006FF05FFCE7
S315200028A01387070083A7470063840700E37AF4FEB3
S315200028B0832607003306D700631886020326040002
S315200028C0B386C6002320D7003306D700E39EC7F879
S315200028D003A6070083A74700B306D6002320D70008
S315200028E02322F7006FF05FF86378C4009307C000D7
S315200028F02320F5006FF05FF703260400B306C4001B
S31520002900639AD70083A6070083A74700B386C6002D
S315200029102320D4002322F400232287006FF0DFF443
S31520002920678000009305050017250000032585769E
S315200029306F00000A930505001725000003258575FD
S315200029406FF05FEE9737000083A7C7D4130101FF0E
S3152000295023248100232021012326110023229100F4
S315200029601309050013840500639A070093050000E8
S31520002970EF1010639737000023AEA7D0930504000D
S3152000298013050900EF10D0619304F0FF631295023E
S315200029901304F0FF8320C1001305040003248100E3
S315200029A083244100032901001301010167800000EF
S315200029B0130435001374C4FFE30E85FCB305A4404D
S315200029C013050900EF10D05DE31695FC6FF05FFC50
S315200029D0130101FE232A91009384350093F4C4FF4A
S315200029E0232E1100232C81002328210123263101A7
S315200029F023244101938484009307C00063F4F400E8
S31520002A009384070063C4040063F8B4029307C000EC
S31520002A102320F500130500008320C1010324810132
S31520002A2083244101032901018329C100032A81004E
S31520002A301301010267800000130905009739000081
S31520002A40938989C5EF00401583A7090013840700E1
S31520002A50631204089385040013050900EFF09FEE26
S31520002A609307F0FF130405006314F51203A409006D
S31520002A70930704006394070E63020410032A0400DC
S31520002A809305000013050900330A4401EF10505145
S31520002A906316AA0E8327040013050900B384F440A5
S31520002AA093850400EFF01FEA9307F0FF6308F50C07
S31520002AB083270400B38797002320F40083A7090007
S31520002AC003A747006312070A9737000023A607BC0F
S31520002AD06F00400383260400B386964063CA060629
S31520002AE01307B000637AD704232094003307940099
S31520002AF06390870423A0E900832744002320D7007E
S31520002B002322F70013050900EF0040091305B4003E
S31520002B1093074400137585FF3307F540E30E07EE50
S31520002B203304E400B387A7402320F4006FF0DFEEE0
S31520002B3023A2E7006FF05FFC03274400639687001B
S31520002B4023A0E9006FF01FFC23A2E7006FF09FFB94
S31520002B5093070400032444006FF09FEF13840700BB
S31520002B6083A747006FF01FF11387070083A747004D
S31520002B70E39C87FE232207006FF0DFF89307C0004F
S31520002B802320F90013050900EF0040016FF09FE8AC
S31520002B90232095006FF01FF76780000067800000F4
S31520002BA0832786009387F7FF2324F60063DC07003C
S31520002BB00327860163C6E700938765FF63940700B2
S31520002BC06F10806983270600138505001387170079
S31520002BD02320E6002380B70067800000130101FE52
S31520002BE0232C8100232A9100232821012326310129
S31520002BF023244101232E110093090500138A050081
S31520002C0013040600B304D6001309F0FF63169400DC
S31520002C10130500006F00C0018345040013060A0057
S31520002C2013850900EFF0DFF713041400E31025FFE6
S31520002C308320C10103248101832441010329010149
S31520002C408329C100032A8100130101026780000045
S31520002C5083278600130101FF2324810023261100E8
S31520002C601304060063800702EF0050652324040046
S31520002C708320C100232204000324810013010101C3
S31520002C8067800000130500006FF09FFE130101F519
S31520002C902324810A2322910A232E3109232C410938
S31520002CA02326110A2320210B232A510923286109CF
S31520002CB023267109232481092322910993090500DA
S31520002CC09384050013040600138A06006308050092
S31520002CD08327050263940700EF00505883D7C4006A
S31520002CE093F78700638C071083A704016388071076
S31520002CF093070002A30CF10293070003232E410140
S31520002D00232A0102230DF102130AF0FF172B0000DC
S31520002D10130B4BDA930B1000930AA000130C04003C
S31520002D2083470C00B33CF0009387B7FDB337F00020
S31520002D30B3FCFC0063980C10B3068C406386060235
S31520002D401306040093850400138509002326D10069
S31520002D50EFF0DFE863044529832741038326C1007A
S31520002D60B387D700232AF10283470C0063880726FE
S31520002D7013041C00232001022326010223224103DF
S31520002D8023240102A3010106232C01068345040006
S31520002D9013065000172500001305C5D1EF10806ECD
S31520002DA083270102930614006312050A13F707010D
S31520002DB06306070013070002A301E10613F7870045
S31520002DC0630607001307B002A301E10603460400C9
S31520002DD01307A0026308E6088327C10293060000B2
S31520002DE01306900003470400130707FD6372E60EDF
S31520002DF0638806082326F1026F0080089385040065
S31520002E0013850900EF104056E30405EE1305F0FF85
S31520002E108320C10A0324810A8324410A0329010A43
S31520002E208329C109032A8109832A4109032B010920
S31520002E30832BC108032C8108832C41081301010B25
S31520002E4067800000130C1C006FF09FED3305654171
S31520002E503395AB003365F5002320A10213840600C9
S31520002E606FF0DFF20327C10113064700032707008F
S31520002E70232EC100634407042326E102138406009F
S31520002E80034704009307E002631EF7060347140076
S31520002E909307A0026318F7048327C10113042400B3
S31520002EA01387470083A70700232EE10063D407007A
S31520002EB09307F0FF2322F1026F00C0043307E0409E
S31520002EC093E727002326E1022320F1026FF01FFB60
S31520002ED0B38757031304140093061000B387E70043
S31520002EE06FF05FF013041400232201029307000001
S31520002EF09306900003470400130707FD63FAE608CC
S31520002F00E39A0CFA834504001306300017250000C7
S31520002F101305C5BAEF100057630405029727000072
S31520002F209387C7B93305F5408327010213070004A9
S31520002F303317A700B3E7E700130414002320F10298
S31520002F40834504001306600017250000130545B7C6
S31520002F50230CB102EF100053630C05089307000001
S31520002F60639A0704032701028327C10113770710F9
S31520002F70630A070293874700232EF1008327410324
S31520002F8013041400B3872701232AF1026FF01FD9F7
S31520002F90B387570313041400930C1000B387E7007C
S31520002FA06FF05FF59387770093F787FF9387870006
S31520002FB06FF09FFC1307C10197060000938646C257
S31520002FC0138604009305010213850900970000006B
S31520002FD0E700000013090500E31245FB83D7C40070
S31520002FE093F70704E39407E2032541036FF05FE2BA
S31520002FF01307C10197060000938686BE1386040038
S315200030009305010213850900EF00401D6FF09FFC18
S315200030109306060013860500930505001725000074
S31520003020032545076FF09FC6130101FD232E3101AD
S3152000303083A705019309070003A78500232481029E
S31520003040232021032328610123267101232611022F
S3152000305023229102232C4101232A5101130B05001F
S315200030601384050013090600938B060063D4E7003A
S31520003070930707002320F90003473404630607005B
S31520003080938717002320F9008327040093F707026C
S315200030906388070083270900938727002320F900E8
S315200030A08324040093F46400639E0400130A9401AD
S315200030B0930AF0FF8327C40003270900B387E7405C
S315200030C063C4F408832704008346340493F7070275
S315200030D0B336D0006392070C1306340493850B0095
S315200030E013050B00E78009009307F0FF630AF50636
S315200030F083270400130740009304000093F767001A
S31520003100639EE700832709008324C400B384F44028
S3152000311093C7F4FF93D7F741B3F4F40083278400D1
S31520003120032704016356F700B387E740B384F4000E
S31520003130130900001304A401130AF0FF6390240965
S31520003140130500006F0000029306100013060A0004
S3152000315093850B0013050B00E7800900631A5503BE
S315200031601305F0FF8320C102032481028324410238
S31520003170032901028329C101032A8101832A4101EE
S31520003180032B0101832BC10013010103678000007B
S31520003190938414006FF01FF23307D4001306000344
S315200031A0A301C7040347540493871600B307F4000A
S315200031B093862600A381E7046FF01FF29306100082
S315200031C01306040093850B0013050B00E780090006
S315200031D0E30845F9130919006FF05FF6130101FCA6
S315200031E0232C8102232A91022324410323225103E3
S315200031F0232E1102232821032326310383C7850189
S315200032009384060093068007130A0500138405009D
S31520003210930A060063E2F602930620061386350417
S3152000322063E0F6026386072893058005972600004B
S3152000323093868689638AB71C130924046F00400489
S315200032409386D7F993F6F60F93055001E3E6D5FE5C
S31520003250972500009385C58993962600B386B600E8
S3152000326083A60600B386B60067800600832707007C
S31520003270130924049386470083A707002320D70039
S315200032802301F404930710006F00402683270400CF
S315200032900325070093F60708930545006386060273
S315200032A0832705002320B70063D807001307D00221
S315200032B0B307F040A301E404972600009386C68056
S315200032C01307A0006F00800693F6070483270500E6
S315200032D02320B700E38A06FC9397070193D707417B
S315200032E06FF09FFC832504008326070013F505084D
S315200032F083A7060093864600631A050093F5050406
S31520003300638605009397070193D707012320D700EB
S31520003310834684011307F0066396E6149716000089
S315200033209386867A13078000A3010404832544002C
S315200033302324B40063CE050003250400B3E5B700BB
S31520003340130906001375B5FF2320A4006384050224
S3152000335013090600B3F5E7021309F9FFB385B60092
S3152000336083C505002300B90093850700B3D7E7027C
S31520003370E3F2E5FE930780006314F7028327040037
S3152000338093F71700638E0700032744008327040161
S3152000339063C8E70093070003A30FF9FE1309F9FF9B
S315200033A0330626412328C4001387040093860A0087
S315200033B01306C1019305040013050A00EFF0DFC6CA
S315200033C09309F0FF631A35131305F0FF8320C10319
S315200033D00324810383244103032901038329C10292
S315200033E0032A8102832A4102130101046780000017
S315200033F08327040093E707022320F400930780071E
S31520003400971600009386866DA302F4048325040094
S315200034100325070013F80508832705001305450033
S31520003420631A080013F8050463060800939707013A
S3152000343093D707012320A70013F71500630607007B
S3152000344093E505022320B4006386070013070001D5
S315200034506FF09FED032704001377F7FD2320E40088
S315200034606FF0DFFE97160000938606661307A0000E
S315200034706FF09FEB832604008327070083254401F2
S3152000348013F8060813854700630A08002320A700BF
S3152000349083A7070023A0B7006F0080012320A70081
S315200034A093F6060483A70700E38606FE2390B7005B
S315200034B023280400130906006FF01FEF8327070057
S315200034C00326440093050000938647002320D70057
S315200034D003A9070013050900EF00D07A630605004B
S315200034E0330525412322A400832744002328F40002
S315200034F0A30104046FF05FEB832604011306090081
S3152000350093850A0013050A00E7800400E30E35EBD5
S315200035108327040093F72700639607048327C101B6
S315200035200325C400E354F5EA138507006FF01FEA6C
S315200035309306100093850A0013050A002326C1006E
S31520003540E7800400E30235E90326C10013091900C8
S315200035508327C4000327C101B387E740E34AF9FC68
S315200035606FF0DFFB13090000130694016FF05FFE76
S315200035708397C500130101FE232C8100232A910085
S31520003580232E11002328210113F787009304050019
S31520003590138405006312071203A745006346E00063
S315200035A003A705046356E0100327C402630207102D
S315200035B003A904009396370123A0040063DC060ABE
S315200035C0032644058357C40093F74700638E0700FC
S315200035D0832744003306F640832744036386070087
S315200035E0832704043306F6408327C4028325040276
S315200035F09306000013850400E78007001307F0FFF9
S315200036008317C4006312E50283A604001307D001C2
S31520003610636CD70E37074020130717003357D700A0
S31520003620137717006302070E0327040123220400E1
S315200036302320E40013973701635C07009307F0FF0C
S315200036406316F50083A7040063940700232AA404C5
S315200036508325440323A02401638C05049307440493
S315200036606386F50013850400EFF0CF9B232A04021E
S315200036706F00000483250402130600009306100041
S3152000368013850400E70007009307F0FF13060500E3
S31520003690E31AF5F283A70400E38607F2138737FEC1
S315200036A0630607009387A7FE639E070423A02401D1
S315200036B0130500006F00000603A60501E30A06FEB7
S315200036C083A6050093F7370023A0C5003389C6409B
S315200036D0130700006394070003A745012324E40091
S315200036E0E35820FD832784028325040293060900DC
S315200036F0138504002326C100E78007000326C100A6
S315200037006346A0028357C40093E707042316F400F8
S315200037101305F0FF8320C101032481018324410185
S315200037200329010113010102678000003306A60068
S315200037303309A9406FF0DFFA83A70501638E0704DA
S31520003740130101FE232C8100232E110013040500F2
S31520003750630C050083270502639807002326B10022
S31520003760EF00C02F8325C1008397C500638C070017
S3152000377013050400032481018320C10113010102E2
S315200037806FF01FDF8320C101032481011305000090
S315200037901301010267800000130500006780000006
S315200037A09305050063100502172600001306868C74
S315200037B097050000938585F8172500001305C58613
S315200037C06F00C075172500000325C58C6FF0DFF646
S315200037D01305000067800000130101FF23248100E8
S315200037E023261100130405002316B5002317C50050
S315200037F02320050023220500232405002322050675
S3152000380023280500232A0500232C05001306800003
S31520003810930500001305C505EF10C0059717000096
S31520003820938707902322F402971700009387C79463
S315200038302324F402971700009387479C2326F4023B
S3152000384097170000938707A18320C10023208402B5
S315200038502328F4020324810013010101678000005C
S31520003860172600001306068197050000938505EDAF
S31520003870171500001305457B6F00406A8325450018
S31520003880130101FF2324810023261100972700001E
S31520003890938787CC130405006384F500EFF0DFE9F6
S315200038A08325840097270000938787D16386F500B8
S315200038B013050400EFF05FE88325C4009727000076
S315200038C0938787D6638CF5001305040003248100B3
S315200038D08320C100130101016FF01FE68320C10080
S315200038E0032481001301010167800000130101FFF9
S315200038F097070000938707F71306000093054000FB
S3152000390017250000130545C523261100172700009B
S315200039102326F7D8EFF05FEC1306100093059000EE
S31520003920172500001305C5C9EFF01FEB8320C10042
S315200039301306200093052001172500001305C5CE88
S31520003940130101016FF05FE9130500006780000095
S315200039509727000083A787D4130101FF2320210185
S315200039602326110023248100232291001309050018
S3152000397063940700EFF09FF7971400009384846FF9
S3152000398003A4840083A744009387F7FF63D8070224
S3152000399003A404006310040C9305C01A1305090040
S315200039A0EFF00F83130405006314050823A0040019
S315200039B09307C0002320F9006F0040050317C400B9
S315200039C063140706B707FFFF938717002322040611
S315200039D02320040023220400232404002326F400A9
S315200039E023280400232A0400232C04001306800025
S315200039F0930500001305C405EF00D067232A0402AF
S31520003A00232C040223240404232604048320C10037
S31520003A1013050400032481008324410003290100A7
S31520003A201301010167800000130484066FF0DFF59F
S31520003A3093074000232005002322F5001305C50027
S31520003A402324A4001306001A93050000EF009062B9
S31520003A5023A08400930404006FF09FF283270502BD
S31520003A606390070297070000938787E12320F502DA
S31520003A709727000083A787C2639407006FF01FE78C
S31520003A80678000006780000067800000171600002E
S31520003A901306465E970500009385C5D313050000DF
S31520003AA06F00C047171600001306C65C9705000076
S31520003AB09385C5E9130500006F00404683278600DD
S31520003AC063960704130500006780000013050000B5
S31520003AD08320C10303248103832441030329010393
S31520003AE08329C102032A8102832A4102032B010270
S31520003AF0832BC101032C8101832C4101032D01015C
S31520003B00832DC100130101046780000083D7C500FF
S31520003B10130101FC232C8102232631032322510386
S31520003B20232E1102232A9102232821032324410331
S31520003B3023206103232E7101232C8101232A910145
S31520003B402328A1012326B10193F78700930A0600B3
S31520003B5013840500930905006382070E83A70501D8
S31520003B60638E070C8317C40003AA0A0013F72700E5
S31520003B70631C071293F71700638C071C930B000036
S31520003B8013050000130B0000130900006306093219
S31520003B9063120502130609009305A00013050B0006
S31520003BA0EF00500E930B1900630605001305150050
S31520003BB0B30B6541138C0B0063747901130C090058
S31520003BC083264401832484000325040083270401DB
S31520003BD0B384960063FCA72E63DA842F93050B002B
S31520003BE013860400EF005045832704009305040044
S31520003BF013850900B38797002320F400EFF0DFB385
S31520003C0063100514B38B9B4013051000639A0B00B9
S31520003C109305040013850900EFF01FB26312051205
S31520003C2083A78A00B387974023A4FA00E38007EA94
S31520003C30330B9B00330999406FF05FF59305040021
S31520003C4013850900EF004072E30E05F01305F0FF1F
S31520003C506FF01FE803290A0083244A00130A8A000A
S31520003C60E38A04FE9386040063769B00B7060080F1
S31520003C70938606C08327840283250402130609003F
S31520003C8013850900E7800700635CA00A83A78A00E2
S31520003C90B387A74023A4FA00E38A07E23309A900E1
S31520003CA0B384A4406FF0DFFB370B008013090000BC
S31520003CB093040000130B0BC06FF09FFA032B0A002E
S31520003CC083244A00130A8A00E38A04FE8317C40069
S31520003CD0032D84000325040013F707206308071427
S31520003CE0930D0D0063ECA41313F70748630C07121A
S31520003CF0032944018325040133098903B30DB54003
S31520003D0013871D00330797003349990313060900CB
S31520003D106376E900130907001306070093F70740A7
S31520003D206388070C9305060013850900EFE05FCA38
S31520003D30130D0500631C05029307C00023A0F9009C
S31520003D408357C40093E707042316F4006FF01FF08F
S31520003D50B70B0080130B000093040000938BFBFF2E
S31520003D60130C3000930C20006FF01FF683250401FE
S31520003D7013860D00EF00D0318357C40093F7F7B7B1
S31520003D8093E707082316F4002328A401232A2401F5
S31520003D90330DBD013309B9412320A4012324240175
S31520003DA0138D040013890400938D04000325040059
S31520003DB013860D0093050B00EF001028832784003F
S31520003DC0B387A7412324F40083270400B387B701D0
S31520003DD02320F40083A78A00B387274123A4FA006F
S31520003DE0E38607CE330B2B01B38424416FF0DFED3E
S31520003DF013850900EF00102C130D0500E31605F8B6
S31520003E008325040113850900EFE0DFA18357C40051
S31520003E1093F7F7F72316F4006FF01FF2138D0400C3
S31520003E206FF05FF8138904006FF05FF883270401B1
S31520003E3063E6A7008326440163F6D40413090D0024
S31520003E4063F4A401138904001306090093050B00EB
S31520003E50EF00901E8327840003270400B3872741A1
S31520003E60330727012324F4002320E400E39407F6F4
S31520003E709305040013850900EFF01F8CE30C05F46D
S31520003E806FF01FEC9387040063F49B0093870B006D
S31520003E90B3C7D702032784028325040213060B0027
S31520003EA013850900B386D702E7000700130905002A
S31520003EB0E342A0F26FF0DFE8032B0A0003294A0051
S31520003EC013050000130A8A006FF05FCC6342DC0200
S31520003ED0832784028325040213060B001385090019
S31520003EE0E780070093040500E34EA0D06FF05FE55E
S31520003EF013060C0093050B00EF0010148327840093
S31520003F0093040C00B38787412324F40083270400FD
S31520003F10B38787012320F4006FF0DFCE130101FD64
S31520003F202324810223202103232E3101232C410126
S31520003F30232A51012326110223229102130A050066
S31520003F40938A050013040000130910009309F0FF5B
S31520003F5083258600832446009384F4FF63DA0402D3
S31520003F6003260600E31606FE8320C102130504007D
S31520003F700324810283244102032901028329C101EA
S31520003F80032A8101832A410113010103678000006E
S31520003F9083D7C5006374F9028397E50063803703EE
S31520003FA013050A002326C1002324B100E7800A0056
S31520003FB00326C100832581003364A40093858506EA
S31520003FC06FF09FF9130101F8232C81061384050055
S31520003FD08395E500232A9106232E110693040600D5
S31520003FE063DA05028357C40093F70708639C070426
S31520003FF0130700408320C1070324810723A0F6006E
S3152000400023A0E400130500008324410713010108BF
S3152000401067800000130681012326D100EF0000658A
S315200040208326C100E34005FC8327C10137F7000042
S31520004030B3F7E70037E7FFFFB387E70093B717002B
S315200040406FF01FFB93070000130700046FF09FFA21
S3152000405003D7C500130101FD232481022326110263
S315200040602322910213772700138405006306070293
S31520004070930774042320F4002328F40093071000E8
S31520004080232AF4008320C1020324810283244102CF
S3152000409013010103678000009306C1011306810105
S315200040A093040500EFF01FF2832581011385040098
S315200040B02326B100EFE0DF918317C4008325C100DA
S315200040C0631E050013F70720E31E07FA93F7C7FFC1
S315200040D093E727002316F4006FF09FF993E707086C
S315200040E02316F4008327C1012320A4002328A4003B
S315200040F0232AB400E38807F88315E4001385040017
S31520004100EF00805BE30005F88357C40093F7C7FFF1
S3152000411093E717002316F4006FF0DFF6130101FF73
S3152000412023248100138405008395E50023261100AE
S31520004130EF0000626340050283274405B387A7008A
S31520004140232AF4048320C1000324810013010101E2
S31520004150678000008357C40037F7FFFF1307F7FF78
S31520004160B3F7E7002316F4006FF0DFFD1305000018
S315200041706780000083D7C500130101FE232C810030
S31520004180232A91002328210123263101232E1100E1
S3152000419093F70710930405001384050013090600FE
S315200041A093890600638A07008395E500930620001D
S315200041B013060000EF00C0548357C40037F7FFFFF3
S315200041C01307F7FFB3F7E7008315E4002316F4007F
S315200041D0032481018320C101938609001306090067
S315200041E08329C10003290101138504008324410189
S315200041F0130101026F00405F130101FF2324810098
S31520004200138405008395E50023261100EF00404F17
S315200042101307F0FF8317C4006312E5021307058016
S3152000422013070780B3F7E7002316F4008320C100A5
S315200042300324810013010101678000003717000065
S31520004240B3E7E7002316F400232AA4046FF01FFE29
S315200042508395E5006F004025130101FE232C810084
S31520004260232A910023263101232E11002328210100
S3152000427093040500938905001304060063080500CE
S315200042808327050263940700EFF04FFD83278401FF
S315200042902324F4008357C40093F78700638607001E
S315200042A083270401639C07029305040013850400F9
S315200042B0EF00800B630405021309F0FF8320C10180
S315200042C003248101832441018329C10013050900A8
S315200042D003290101130101026780000083270401DD
S315200042E0032504003305F54083274401634AF5007E
S315200042F09305040013850400EFF00FC4E31E05FAAE
S31520004300832784001305150013F9F90F9387F7FF08
S315200043102324F40083270400138717002320E400B6
S315200043202380370183274401638CA7008357C40069
S3152000433093F71700E38407F8930769FFE39007F8DC
S315200043409305040013850400EFF00FBFE30805F67C
S315200043506FF09FF6138605009305050017150000DC
S31520004360032545D36FF05FEF130101FF2322910050
S3152000437093040500171500000325C5D123248100C9
S3152000438023261100138405006308050083270502F0
S3152000439063940700EFF08FEC8317C40013F78700B0
S315200043A06312070613F70701631E07001307900021
S315200043B023A0E40093E707042316F4001305F0FF77
S315200043C06F00800913F74700630A07028325440319
S315200043D0638C0500930744046386F5001385040067
S315200043E0EFE04FC4232A04028357C40003270401A5
S315200043F02322040093F7B7FD2320E40093E78700E8
S315200044002316F40083270401639007028327C40040
S315200044101307002093F707286388E7009305040015
S3152000442013850400EFF0DFC28317C40013F71700CB
S31520004430630E070203274401232404003307E040C8
S31520004440232CE4000327040113050000631607004C
S3152000445013F70708E31007F68320C1000324810021
S3152000446083244100130101016780000013F7270010
S315200044709306000063140700832644012324D400F6
S315200044806FF05FFC93F5F50F3306C5006316C50084
S31520004490130500006780000083470500E38CB7FE04
S315200044A0130515006FF09FFE130101FF23248100E1
S315200044B013040500138505009717000023A2071E85
S315200044C023261100EFD00FD99307F0FF631AF500CA
S315200044D09717000083A7C71C638407002320F400D6
S315200044E08320C1000324810013010101678000009D
S315200044F09717000083A707BA6388A7168327C501E5
S31520004500130101FE232C8100232E1100232A910062
S31520004510232821012326310113040500638407087B
S3152000452083A7C700638C07029304000013090008C1
S315200045308327C40183A7C700B387970083A50700F5
S315200045406398050493844400E39424FF8327C401DD
S315200045501305040083A5C700EFE0CFAC8327C40171
S3152000456083A507006386050013050400EFE08FABE3
S315200045708327C40183A487006386040293850400ED
S315200045801305040083A40400EFE0CFA96FF0DFFE3B
S3152000459083A9050013050400EFE0CFA89385090041
S315200045A06FF01FFA83254401638605001305040076
S315200045B0EFE04FA78325C401638605001305040099
S315200045C0EFE04FA683250403638605001305040048
S315200045D0EFE04FA5832544036386050013050400F9
S315200045E0EFE04FA4832584036386050013050400AA
S315200045F0EFE04FA38325840463860500130504009A
S31520004600EFE04FA2832544046386050013050400CA
S31520004610EFE04FA18325C40263860500130504003D
S31520004620EFE04FA0832704026382070213050400EC
S31520004630032481018320C10183244101032901012F
S315200046408329C10013010102678007008320C1016D
S315200046500324810183244101032901018329C10007
S31520004660130101026780000067800000130101FF2B
S3152000467023248100130405001385050093050600F5
S315200046809717000023AE070023261100EFD08FC214
S315200046909307F0FF631AF5009717000083A74700DA
S315200046A0638407002320F4008320C10003248100B3
S315200046B01301010167800000130101FF23248100FB
S315200046C013040500138505009717000023AA07FC8D
S315200046D023261100EFD00FC59307F0FF631AF500CC
S315200046E09717000083A7C7FB638407002320F400E5
S315200046F08320C1000324810013010101678000008B
S31520004700130101FF232481001304050013850500EE
S3152000471093050600138606009717000023A207F8C4
S3152000472023261100EFD0CFBC9307F0FF631AF500C4
S315200047309717000083A7C7F6638407002320F40099
S315200047408320C1000324810013010101678000003A
S31520004750130101FF2324810013040500138505009E
S3152000476093050600138606009717000023AA07F272
S3152000477023261100EFD04FC49307F0FF631AF500EC
S315200047809717000083A7C7F1638407002320F4004E
S315200047908320C100032481001301010167800000EA
S315200047A0130101FF2324810013040500138505004E
S315200047B09717000023A607EE23261100EFC09FF4CB
S315200047C09307F0FF631AF5009717000083A747EDBC
S315200047D0638407002320F4008320C1000324810082
S315200047E01301010167800000130101FF23248100CA
S315200047F0130405001385050093050600138606009D
S315200048009717000023AE07E823261100EFD04FB4F8
S315200048109307F0FF631AF5009717000083A747E870
S31520004820638407002320F4008320C1000324810031
S315200048301301010167800000630C060213030500C3
S3152000484093061000636AB5009306F0FF1307F6FF80
S315200048503303E300B385E50083830500230073005B
S315200048601306F6FF3303D300B385D500E31606FE01
S315200048706780000013030500630A06002300B300C7
S315200048801306F6FF13031300E31A06FE67800000E3
S3152000489013030500630E06008383050023007300BF
S315200048A01306F6FF1303130093851500E31606FE81
S315200048B06780000063960500930506006FE04F9120
S315200048C0130101FE232C810023244101232E1100F4
S315200048D0232A9100232821012326310113040600CF
S315200048E0130A050063180602EFD0DFF393040000D5
S315200048F08320C10103248101032901018329C100E9
S31520004900032A810013850400832441011301010237
S315200049106780000093840500EF00800513090500D9
S315200049206366850093571500E3E487FC930504002E
S3152000493013050A00EFE0CF899309050063160500E9
S31520004940938409006FF0DFFA13060400637489006C
S31520004950130609009385040013850900EFF05FF321
S315200049609385040013050A00EFD0DFEB6FF05FFD9F
S3152000497083A7C5FF1385C7FF63D80700B385A500A6
S3152000498083A705003305F500678000002564000035
S315200049900A50726F6772616D20657869746564204C
S315200049A07769746820636F64652025640A000000B7
S315200049B000010202030303030404040404040404A0
S315200049C00505050505050505050505050505050571
S315200049D00606060606060606060606060606060651
S315200049E00606060606060606060606060606060641
S315200049F00707070707070707070707070707070721
S31520004A000707070707070707070707070707070710
S31520004A100707070707070707070707070707070700
S31520004A2007070707070707070707070707070707F0
S31520004A3008080808080808080808080808080808D0
S31520004A4008080808080808080808080808080808C0
S31520004A5008080808080808080808080808080808B0
S31520004A6008080808080808080808080808080808A0
S31520004A700808080808080808080808080808080890
S31520004A800808080808080808080808080808080880
S31520004A900808080808080808080808080808080870
S31520004AA00808080808080808080808080808080860
S31520004AB0232D302B20000000686C4C00656667456E
S31520004AC046470000303132333435363738394142A3
S31520004AD04344454600000000303132333435363702
S31520004AE038396162636465660000000080E7FFFF75
S31520004AF0A0E7FFFF4CE7FFFF4CE7FFFF4CE7FFFF78
S31520004B004CE7FFFFA0E7FFFF4CE7FFFF4CE7FFFF67
S31520004B104CE7FFFF4CE7FFFF88E9FFFFF8E7FFFFC1
S31520004B2004E9FFFF4CE7FFFF4CE7FFFFD0E9FFFF5B
S31520004B304CE7FFFFF8E7FFFF4CE7FFFF4CE7FFFFDF
S30920004B4010E9FFFF54
S31520004B441000000000000000037A5200017C0101DD
S31520004B541B0C0200100000001800000028D1FFFFE3
S31520004B646804000000000000100000002C00000073
S31120004B747CD5FFFFA40400000000000018
S31520004B800000000000000000000075BD75BD75BD69
S31520004B9075BD75BD0000000000000000000000008B
S31520004BA000000000000075BDBAD6BAD6BAD6BAD66D
S31520004BB0BAD6BAD6BAD675BD0000000000000000ED
S31520004BC00000000075BDBAD6BAD6BAD6BAD6BAD6BD
S31520004BD0BAD6BAD6BAD6BAD6BAD6000000000000DF
S31520004BE0000075BDBAD65DEFBAD6BAD65DEF5DEFD9
S31520004BF0BAD6364436443644BAD675BD00000000CF
S31520004C000000BAD6BAD6BAD6BAD65DEFFFFFFFFFF6
S31520004C1036443644364436443644BAD6000000007C
S31520004C2075BDBAD675BD75BDBAD65DEFFFFF3644E4
S31520004C303644BBC66D1A6D1A3644364475BD00001F
S31520004C4010A475BDBAD6BAD6BAD6BAD65DEF364452
S31520004C5036446D1A6D1A6D1A36443644BAD600009B
S31520004C6010A4BAD675BDBAD6BAD6BAD6BAD63644EE
S31520004C7036446D1A6D1A6D1A36443644BAD600007B
S31520004C8075BDBAD6BAD6BAD6BAD6BAD6BAD6BAD6DC
S31520004C9036443644364436443644BAD6BAD600006C
S31520004CA075BDBAD6BAD6BAD6BAD65DEFBAD6BAD600
S31520004CB0BAD6364436443644BAD6BAD675BD00007E
S31520004CC0000075BDBAD675BDBAD6BAD6BAD6BAD68A
S31520004CD0BAD6BAD6BAD6BAD6BAD6BAD6000000004E
S31520004CE0000075BD75BD75BDBAD6BAD675BDBAD626
S31520004CF0BAD6BAD6BAD675BDBAD675BD00000000EA
S31520004D000000000010A4BAD675BD75BDBAD6BAD6B5
S31520004D10BAD675BDBAD610A4BAD6000000000000D7
S31520004D20000000000000BAD6BAD6BAD6BAD6BAD68D
S31520004D3075BD10A475BD10A4000000000000000081
S31520004D400000000000000000000075BD10A475BD25
S31520004D5075BD10A400000000000000000000000047
S31520004D60000000000000000000000000000000001D
S31520004D70000000000000000000000000000000000D
S31520004D8014000000F000A000140000001400000031
S31520004D90DC00A0001400000000000000000000005D
S31520004DA000000000000000000000000000000000DD
S31520004DB000000000000000000000000000000000CD
S31520004DC000000000000000000000000000000000BD
S31520004DD000000000000000000000000000000000AD
S315200050000000000000000000D84F00200300000030
S31520005010D84F002002000000D84F002001000000D9
S31520005020D84F00200000000054550020BC55002019
S3152000503024560020000000000000000000000000B0
S31520005040000000000000000000000000000000003A
S31520005050000000000000000000000000000000002A
S31520005060000000000000000000000000000000001A
S3152000507000000000030000005455002000F000E06E
S3152000508002000000F0000000A00000001400000054
S309200050902450002062
S70520000000DA
